{
  "_format": "hh-sol-artifact-1",
  "contractName": "AccountFactory",
  "sourceName": "contracts/AccountFactory.sol",
  "abi": [
    {
      "inputs": [
        {
          "internalType": "address",
          "name": "allowed",
          "type": "address"
        }
      ],
      "stateMutability": "nonpayable",
      "type": "constructor"
    },
    {
      "anonymous": false,
      "inputs": [
        {
          "indexed": false,
          "internalType": "address",
          "name": "addr",
          "type": "address"
        },
        {
          "indexed": false,
          "internalType": "uint256",
          "name": "salt",
          "type": "uint256"
        }
      ],
      "name": "LogDeployed",
      "type": "event"
    },
    {
      "inputs": [],
      "name": "allowedToDrain",
      "outputs": [
        {
          "internalType": "address",
          "name": "",
          "type": "address"
        }
      ],
      "stateMutability": "view",
      "type": "function"
    },
    {
      "inputs": [
        {
          "internalType": "bytes",
          "name": "code",
          "type": "bytes"
        },
        {
          "internalType": "uint256",
          "name": "salt",
          "type": "uint256"
        }
      ],
      "name": "deploy",
      "outputs": [
        {
          "internalType": "address",
          "name": "",
          "type": "address"
        }
      ],
      "stateMutability": "nonpayable",
      "type": "function"
    },
    {
      "inputs": [
        {
          "internalType": "bytes",
          "name": "code",
          "type": "bytes"
        },
        {
          "internalType": "uint256",
          "name": "salt",
          "type": "uint256"
        },
        {
          "internalType": "address",
          "name": "callee",
          "type": "address"
        },
        {
          "internalType": "bytes",
          "name": "data",
          "type": "bytes"
        }
      ],
      "name": "deployAndCall",
      "outputs": [],
      "stateMutability": "nonpayable",
      "type": "function"
    },
    {
      "inputs": [
        {
          "internalType": "bytes",
          "name": "code",
          "type": "bytes"
        },
        {
          "internalType": "uint256",
          "name": "salt",
          "type": "uint256"
        }
      ],
      "name": "estimatedAddress",
      "outputs": [
        {
          "internalType": "address",
          "name": "",
          "type": "address"
        }
      ],
      "stateMutability": "view",
      "type": "function"
    },
    {
      "inputs": [
        {
          "internalType": "contract IERC20",
          "name": "token",
          "type": "address"
        },
        {
          "internalType": "address",
          "name": "to",
          "type": "address"
        },
        {
          "internalType": "uint256",
          "name": "tokenAmount",
          "type": "uint256"
        }
      ],
      "name": "withdrawToken",
      "outputs": [],
      "stateMutability": "nonpayable",
      "type": "function"
    }
  ],
  "bytecode": "0x60a060405234801561001057600080fd5b5060405161098138038061098183398101604081905261002f91610040565b6001600160a01b0316608052610070565b60006020828403121561005257600080fd5b81516001600160a01b038116811461006957600080fd5b9392505050565b6080516108f0610091600039600081816086015261017701526108f06000f3fe608060405234801561001057600080fd5b50600436106100675760003560e01c806349c815791161005057806349c81579146100c45780639c4ae2d0146100d7578063e3041298146100ea57600080fd5b806301e336671461006c5780631ce6236f14610081575b600080fd5b61007f61007a366004610649565b61016c565b005b6100a87f000000000000000000000000000000000000000000000000000000000000000081565b6040516001600160a01b03909116815260200160405180910390f35b61007f6100d23660046106d3565b61027b565b6100a86100e5366004610761565b61045b565b6100a86100f83660046107dc565b8151602092830120604080517fff00000000000000000000000000000000000000000000000000000000000000818601523060601b6bffffffffffffffffffffffff191660218201526035810193909352605580840192909252805180840390920182526075909201909152805191012090565b336001600160a01b037f000000000000000000000000000000000000000000000000000000000000000016146101e95760405162461bcd60e51b815260206004820152600f60248201527f4f4e4c595f415554484f52495a4544000000000000000000000000000000000060448201526064015b60405180910390fd5b6040517fa9059cbb0000000000000000000000000000000000000000000000000000000081526001600160a01b0383811660048301526024820183905284169063a9059cbb906044016020604051808303816000875af1158015610251573d6000803e3d6000fd5b505050506040513d601f19601f820116820180604052508101906102759190610891565b50505050565b6102bc86868080601f0160208091040260200160405190810160405280939291908181526020018383808284376000920191909152508892506104a6915050565b506004811161030d5760405162461bcd60e51b815260206004820152600860248201527f444154415f4c454e00000000000000000000000000000000000000000000000060448201526064016101e0565b81356001600160e01b0319167f6171d1c90000000000000000000000000000000000000000000000000000000081148061037057507f534255ff000000000000000000000000000000000000000000000000000000006001600160e01b03198216145b806103a457507f4b776c6d000000000000000000000000000000000000000000000000000000006001600160e01b03198216145b806103d857507f63486689000000000000000000000000000000000000000000000000000000006001600160e01b03198216145b6104245760405162461bcd60e51b815260206004820152600e60248201527f494e56414c49445f4d4554484f4400000000000000000000000000000000000060448201526064016101e0565b6040518284823760008084836000895af1905080801561044357610450565b3d604051816000823e8181fd5b505050505050505050565b600061049e84848080601f0160208091040260200160405190810160405280939291908181526020018383808284376000920191909152508692506104a6915050565b949350505050565b8151602080840191909120604080517fff00000000000000000000000000000000000000000000000000000000000000818501523060601b6bffffffffffffffffffffffff19166021820152603581018590526055808201939093528151808203909301835260750190528051910120600090803b80610629576000848651602088016000f590506001600160a01b0381166105845760405162461bcd60e51b815260206004820152601060248201527f4641494c45445f4445504c4f59494e470000000000000000000000000000000060448201526064016101e0565b826001600160a01b0316816001600160a01b0316146105e55760405162461bcd60e51b815260206004820152600c60248201527f4641494c45445f4d41544348000000000000000000000000000000000000000060448201526064016101e0565b604080516001600160a01b0383168152602081018790527fecef66cbb4d4c8dd18157def75d46290ddc298395ea46f7ff64321c1a912cbad910160405180910390a1505b509392505050565b6001600160a01b038116811461064657600080fd5b50565b60008060006060848603121561065e57600080fd5b833561066981610631565b9250602084013561067981610631565b929592945050506040919091013590565b60008083601f84011261069c57600080fd5b50813567ffffffffffffffff8111156106b457600080fd5b6020830191508360208285010111156106cc57600080fd5b9250929050565b600080600080600080608087890312156106ec57600080fd5b863567ffffffffffffffff8082111561070457600080fd5b6107108a838b0161068a565b9098509650602089013595506040890135915061072c82610631565b9093506060880135908082111561074257600080fd5b5061074f89828a0161068a565b979a9699509497509295939492505050565b60008060006040848603121561077657600080fd5b833567ffffffffffffffff81111561078d57600080fd5b6107998682870161068a565b909790965060209590950135949350505050565b7f4e487b7100000000000000000000000000000000000000000000000000000000600052604160045260246000fd5b600080604083850312156107ef57600080fd5b823567ffffffffffffffff8082111561080757600080fd5b818501915085601f83011261081b57600080fd5b81358181111561082d5761082d6107ad565b604051601f8201601f19908116603f01168101908382118183101715610855576108556107ad565b8160405282815288602084870101111561086e57600080fd5b826020860160208301376000602093820184015298969091013596505050505050565b6000602082840312156108a357600080fd5b815180151581146108b357600080fd5b939250505056fea2646970667358221220c9f6a20378f756760d3a76c5ff664aa7e9915f15c02bf1d9f02a3629bc7ebc2e64736f6c634300080c0033",
  "linkReferences": {},
  "deployedLinkReferences": {}
}