{
  "_format": "hh-sol-artifact-1",
  "contractName": "SimpleAccount",
  "sourceName": "contracts/Account.sol",
  "abi": [
    {
      "inputs": [
        {
          "internalType": "contract IEntryPoint",
          "name": "anEntryPoint",
          "type": "address"
        },
        {
          "internalType": "address",
          "name": "anOwner",
          "type": "address"
        }
      ],
      "stateMutability": "nonpayable",
      "type": "constructor"
    },
    {
      "anonymous": false,
      "inputs": [
        {
          "indexed": true,
          "internalType": "contract IEntryPoint",
          "name": "entryPoint",
          "type": "address"
        },
        {
          "indexed": true,
          "internalType": "address",
          "name": "owner",
          "type": "address"
        }
      ],
      "name": "SimpleAccountInitialized",
      "type": "event"
    },
    {
      "inputs": [],
      "name": "addDeposit",
      "outputs": [],
      "stateMutability": "payable",
      "type": "function"
    },
    {
      "inputs": [],
      "name": "entryPoint",
      "outputs": [
        {
          "internalType": "contract IEntryPoint",
          "name": "",
          "type": "address"
        }
      ],
      "stateMutability": "view",
      "type": "function"
    },
    {
      "inputs": [
        {
          "internalType": "address",
          "name": "dest",
          "type": "address"
        },
        {
          "internalType": "uint256",
          "name": "value",
          "type": "uint256"
        },
        {
          "internalType": "bytes",
          "name": "func",
          "type": "bytes"
        }
      ],
      "name": "execute",
      "outputs": [],
      "stateMutability": "nonpayable",
      "type": "function"
    },
    {
      "inputs": [
        {
          "internalType": "address[]",
          "name": "dest",
          "type": "address[]"
        },
        {
          "internalType": "bytes[]",
          "name": "func",
          "type": "bytes[]"
        }
      ],
      "name": "executeBatch",
      "outputs": [],
      "stateMutability": "nonpayable",
      "type": "function"
    },
    {
      "inputs": [],
      "name": "getDeposit",
      "outputs": [
        {
          "internalType": "uint256",
          "name": "",
          "type": "uint256"
        }
      ],
      "stateMutability": "view",
      "type": "function"
    },
    {
      "inputs": [],
      "name": "getNonce",
      "outputs": [
        {
          "internalType": "uint256",
          "name": "",
          "type": "uint256"
        }
      ],
      "stateMutability": "view",
      "type": "function"
    },
    {
      "inputs": [
        {
          "internalType": "address",
          "name": "",
          "type": "address"
        },
        {
          "internalType": "address",
          "name": "",
          "type": "address"
        },
        {
          "internalType": "uint256[]",
          "name": "",
          "type": "uint256[]"
        },
        {
          "internalType": "uint256[]",
          "name": "",
          "type": "uint256[]"
        },
        {
          "internalType": "bytes",
          "name": "",
          "type": "bytes"
        }
      ],
      "name": "onERC1155BatchReceived",
      "outputs": [
        {
          "internalType": "bytes4",
          "name": "",
          "type": "bytes4"
        }
      ],
      "stateMutability": "pure",
      "type": "function"
    },
    {
      "inputs": [
        {
          "internalType": "address",
          "name": "",
          "type": "address"
        },
        {
          "internalType": "address",
          "name": "",
          "type": "address"
        },
        {
          "internalType": "uint256",
          "name": "",
          "type": "uint256"
        },
        {
          "internalType": "uint256",
          "name": "",
          "type": "uint256"
        },
        {
          "internalType": "bytes",
          "name": "",
          "type": "bytes"
        }
      ],
      "name": "onERC1155Received",
      "outputs": [
        {
          "internalType": "bytes4",
          "name": "",
          "type": "bytes4"
        }
      ],
      "stateMutability": "pure",
      "type": "function"
    },
    {
      "inputs": [
        {
          "internalType": "address",
          "name": "",
          "type": "address"
        },
        {
          "internalType": "address",
          "name": "",
          "type": "address"
        },
        {
          "internalType": "uint256",
          "name": "",
          "type": "uint256"
        },
        {
          "internalType": "bytes",
          "name": "",
          "type": "bytes"
        }
      ],
      "name": "onERC721Received",
      "outputs": [
        {
          "internalType": "bytes4",
          "name": "",
          "type": "bytes4"
        }
      ],
      "stateMutability": "pure",
      "type": "function"
    },
    {
      "inputs": [],
      "name": "owner",
      "outputs": [
        {
          "internalType": "address",
          "name": "",
          "type": "address"
        }
      ],
      "stateMutability": "view",
      "type": "function"
    },
    {
      "inputs": [
        {
          "internalType": "bytes4",
          "name": "interfaceId",
          "type": "bytes4"
        }
      ],
      "name": "supportsInterface",
      "outputs": [
        {
          "internalType": "bool",
          "name": "",
          "type": "bool"
        }
      ],
      "stateMutability": "view",
      "type": "function"
    },
    {
      "inputs": [
        {
          "internalType": "address",
          "name": "",
          "type": "address"
        },
        {
          "internalType": "address",
          "name": "",
          "type": "address"
        },
        {
          "internalType": "address",
          "name": "",
          "type": "address"
        },
        {
          "internalType": "uint256",
          "name": "",
          "type": "uint256"
        },
        {
          "internalType": "bytes",
          "name": "",
          "type": "bytes"
        },
        {
          "internalType": "bytes",
          "name": "",
          "type": "bytes"
        }
      ],
      "name": "tokensReceived",
      "outputs": [],
      "stateMutability": "pure",
      "type": "function"
    },
    {
      "inputs": [
        {
          "components": [
            {
              "internalType": "address",
              "name": "sender",
              "type": "address"
            },
            {
              "internalType": "uint256",
              "name": "nonce",
              "type": "uint256"
            },
            {
              "internalType": "bytes",
              "name": "initCode",
              "type": "bytes"
            },
            {
              "internalType": "bytes",
              "name": "callData",
              "type": "bytes"
            },
            {
              "internalType": "uint256",
              "name": "callGasLimit",
              "type": "uint256"
            },
            {
              "internalType": "uint256",
              "name": "verificationGasLimit",
              "type": "uint256"
            },
            {
              "internalType": "uint256",
              "name": "preVerificationGas",
              "type": "uint256"
            },
            {
              "internalType": "uint256",
              "name": "maxFeePerGas",
              "type": "uint256"
            },
            {
              "internalType": "uint256",
              "name": "maxPriorityFeePerGas",
              "type": "uint256"
            },
            {
              "internalType": "bytes",
              "name": "paymasterAndData",
              "type": "bytes"
            },
            {
              "internalType": "bytes",
              "name": "signature",
              "type": "bytes"
            }
          ],
          "internalType": "struct UserOperation",
          "name": "userOp",
          "type": "tuple"
        },
        {
          "internalType": "bytes32",
          "name": "userOpHash",
          "type": "bytes32"
        },
        {
          "internalType": "uint256",
          "name": "missingAccountFunds",
          "type": "uint256"
        }
      ],
      "name": "validateUserOp",
      "outputs": [
        {
          "internalType": "uint256",
          "name": "validationData",
          "type": "uint256"
        }
      ],
      "stateMutability": "nonpayable",
      "type": "function"
    },
    {
      "inputs": [
        {
          "internalType": "address payable",
          "name": "withdrawAddress",
          "type": "address"
        },
        {
          "internalType": "uint256",
          "name": "amount",
          "type": "uint256"
        }
      ],
      "name": "withdrawDepositTo",
      "outputs": [],
      "stateMutability": "nonpayable",
      "type": "function"
    },
    {
      "stateMutability": "payable",
      "type": "receive"
    }
  ],
  "bytecode": "0x60a060405234801561001057600080fd5b50604051620013bf380380620013bf833981016040819052610031916100b6565b6001600160a01b0382166080526100478161004e565b50506100f0565b600080546001600160a01b0319166001600160a01b03838116918217835560805160405192939116917f47e55c76e7a6f1fd8996a1da8008c1ea29699cca35e7bcd057f2dec313b6e5de9190a350565b6001600160a01b03811681146100b357600080fd5b50565b600080604083850312156100c957600080fd5b82516100d48161009e565b60208401519092506100e58161009e565b809150509250929050565b608051611289620001366000396000818161024a015281816104fc01528181610596015281816106be0152818161076f015281816107a901526108a801526112896000f3fe6080604052600436106100e05760003560e01c80638da5cb5b1161007f578063bc197c8111610059578063bc197c811461028e578063c399ec88146102d6578063d087d288146102eb578063f23a6e611461030057600080fd5b80638da5cb5b14610203578063b0d691fe1461023b578063b61d27f61461026e57600080fd5b806318dfb3c7116100bb57806318dfb3c71461018d5780633a871cdd146101ad5780634a58db19146101db5780634d44560d146101e357600080fd5b806223de29146100ec57806301ffc9a714610113578063150b7a021461014857600080fd5b366100e757005b600080fd5b3480156100f857600080fd5b50610111610107366004610d5d565b5050505050505050565b005b34801561011f57600080fd5b5061013361012e366004610e0e565b610346565b60405190151581526020015b60405180910390f35b34801561015457600080fd5b50610174610163366004610e38565b630a85bd0160e11b95945050505050565b6040516001600160e01b0319909116815260200161013f565b34801561019957600080fd5b506101116101a8366004610ef0565b6103ca565b3480156101b957600080fd5b506101cd6101c8366004610f5c565b6104d4565b60405190815260200161013f565b6101116104fa565b3480156101ef57600080fd5b506101116101fe366004610fb0565b61058c565b34801561020f57600080fd5b50600054610223906001600160a01b031681565b6040516001600160a01b03909116815260200161013f565b34801561024757600080fd5b507f0000000000000000000000000000000000000000000000000000000000000000610223565b34801561027a57600080fd5b50610111610289366004610fdc565b610636565b34801561029a57600080fd5b506101746102a936600461102c565b7fbc197c810000000000000000000000000000000000000000000000000000000098975050505050505050565b3480156102e257600080fd5b506101cd610685565b3480156102f757600080fd5b506101cd61072f565b34801561030c57600080fd5b5061017461031b3660046110ca565b7ff23a6e61000000000000000000000000000000000000000000000000000000009695505050505050565b60006001600160e01b03198216630a85bd0160e11b148061039057506001600160e01b031982167f4e2312e000000000000000000000000000000000000000000000000000000000145b806103c457506001600160e01b031982167f01ffc9a700000000000000000000000000000000000000000000000000000000145b92915050565b6103d261079e565b8281146104265760405162461bcd60e51b815260206004820152601360248201527f77726f6e67206172726179206c656e677468730000000000000000000000000060448201526064015b60405180910390fd5b60005b838110156104cd576104bb85858381811061044657610446611146565b905060200201602081019061045b919061115c565b600085858581811061046f5761046f611146565b90506020028101906104819190611179565b8080601f01602080910402602001604051908101604052809392919081815260200183838082843760009201919091525061082d92505050565b806104c5816111c0565b915050610429565b5050505050565b60006104de61089d565b6104e88484610915565b90506104f3826109be565b9392505050565b7f00000000000000000000000000000000000000000000000000000000000000006040517fb760faf90000000000000000000000000000000000000000000000000000000081523060048201526001600160a01b03919091169063b760faf99034906024016000604051808303818588803b15801561057857600080fd5b505af11580156104cd573d6000803e3d6000fd5b610594610a0b565b7f00000000000000000000000000000000000000000000000000000000000000006040517f205c28780000000000000000000000000000000000000000000000000000000081526001600160a01b03848116600483015260248201849052919091169063205c287890604401600060405180830381600087803b15801561061a57600080fd5b505af115801561062e573d6000803e3d6000fd5b505050505050565b61063e61079e565b61067f848484848080601f01602080910402602001604051908101604052809392919081815260200183838082843760009201919091525061082d92505050565b50505050565b6040517f70a082310000000000000000000000000000000000000000000000000000000081523060048201526000906001600160a01b037f000000000000000000000000000000000000000000000000000000000000000016906370a08231906024015b602060405180830381865afa158015610706573d6000803e3d6000fd5b505050506040513d601f19601f8201168201806040525081019061072a91906111e9565b905090565b6040517f35567e1a000000000000000000000000000000000000000000000000000000008152306004820152600060248201819052906001600160a01b037f000000000000000000000000000000000000000000000000000000000000000016906335567e1a906044016106e9565b336001600160a01b037f00000000000000000000000000000000000000000000000000000000000000001614806107df57506000546001600160a01b031633145b61082b5760405162461bcd60e51b815260206004820181905260248201527f6163636f756e743a206e6f74204f776e6572206f7220456e747279506f696e74604482015260640161041d565b565b600080846001600160a01b031684846040516108499190611202565b60006040518083038185875af1925050503d8060008114610886576040519150601f19603f3d011682016040523d82523d6000602084013e61088b565b606091505b5091509150816104cd57805160208201fd5b336001600160a01b037f0000000000000000000000000000000000000000000000000000000000000000161461082b5760405162461bcd60e51b815260206004820152601c60248201527f6163636f756e743a206e6f742066726f6d20456e747279506f696e7400000000604482015260640161041d565b7f19457468657265756d205369676e6564204d6573736167653a0a3332000000006000908152601c829052603c8120610992610955610140860186611179565b8080601f0160208091040260200160405190810160405280939291908181526020018383808284376000920191909152508593925050610a6f9050565b6000546001600160a01b039081169116146109b15760019150506103c4565b5060009392505050565b50565b80156109bb57604051600090339060001990849084818181858888f193505050503d80600081146104cd576040519150601f19603f3d011682016040523d82523d6000602084013e6104cd565b6000546001600160a01b0316331480610a2357503330145b61082b5760405162461bcd60e51b815260206004820152600a60248201527f6f6e6c79206f776e657200000000000000000000000000000000000000000000604482015260640161041d565b6000806000610a7e8585610a93565b91509150610a8b81610ad9565b509392505050565b600080825160411415610aca5760208301516040840151606085015160001a610abe87828585610c42565b94509450505050610ad2565b506000905060025b9250929050565b6000816004811115610aed57610aed61123d565b1415610af65750565b6001816004811115610b0a57610b0a61123d565b1415610b585760405162461bcd60e51b815260206004820152601860248201527f45434453413a20696e76616c6964207369676e61747572650000000000000000604482015260640161041d565b6002816004811115610b6c57610b6c61123d565b1415610bba5760405162461bcd60e51b815260206004820152601f60248201527f45434453413a20696e76616c6964207369676e6174757265206c656e67746800604482015260640161041d565b6003816004811115610bce57610bce61123d565b14156109bb5760405162461bcd60e51b815260206004820152602260248201527f45434453413a20696e76616c6964207369676e6174757265202773272076616c60448201527f7565000000000000000000000000000000000000000000000000000000000000606482015260840161041d565b6000807f7fffffffffffffffffffffffffffffff5d576e7357a4501ddfe92f46681b20a0831115610c795750600090506003610cfd565b6040805160008082526020820180845289905260ff881692820192909252606081018690526080810185905260019060a0016020604051602081039080840390855afa158015610ccd573d6000803e3d6000fd5b5050604051601f1901519150506001600160a01b038116610cf657600060019250925050610cfd565b9150600090505b94509492505050565b6001600160a01b03811681146109bb57600080fd5b60008083601f840112610d2d57600080fd5b50813567ffffffffffffffff811115610d4557600080fd5b602083019150836020828501011115610ad257600080fd5b60008060008060008060008060c0898b031215610d7957600080fd5b8835610d8481610d06565b97506020890135610d9481610d06565b96506040890135610da481610d06565b955060608901359450608089013567ffffffffffffffff80821115610dc857600080fd5b610dd48c838d01610d1b565b909650945060a08b0135915080821115610ded57600080fd5b50610dfa8b828c01610d1b565b999c989b5096995094979396929594505050565b600060208284031215610e2057600080fd5b81356001600160e01b0319811681146104f357600080fd5b600080600080600060808688031215610e5057600080fd5b8535610e5b81610d06565b94506020860135610e6b81610d06565b935060408601359250606086013567ffffffffffffffff811115610e8e57600080fd5b610e9a88828901610d1b565b969995985093965092949392505050565b60008083601f840112610ebd57600080fd5b50813567ffffffffffffffff811115610ed557600080fd5b6020830191508360208260051b8501011115610ad257600080fd5b60008060008060408587031215610f0657600080fd5b843567ffffffffffffffff80821115610f1e57600080fd5b610f2a88838901610eab565b90965094506020870135915080821115610f4357600080fd5b50610f5087828801610eab565b95989497509550505050565b600080600060608486031215610f7157600080fd5b833567ffffffffffffffff811115610f8857600080fd5b84016101608187031215610f9b57600080fd5b95602085013595506040909401359392505050565b60008060408385031215610fc357600080fd5b8235610fce81610d06565b946020939093013593505050565b60008060008060608587031215610ff257600080fd5b8435610ffd81610d06565b935060208501359250604085013567ffffffffffffffff81111561102057600080fd5b610f5087828801610d1b565b60008060008060008060008060a0898b03121561104857600080fd5b883561105381610d06565b9750602089013561106381610d06565b9650604089013567ffffffffffffffff8082111561108057600080fd5b61108c8c838d01610eab565b909850965060608b01359150808211156110a557600080fd5b6110b18c838d01610eab565b909650945060808b0135915080821115610ded57600080fd5b60008060008060008060a087890312156110e357600080fd5b86356110ee81610d06565b955060208701356110fe81610d06565b94506040870135935060608701359250608087013567ffffffffffffffff81111561112857600080fd5b61113489828a01610d1b565b979a9699509497509295939492505050565b634e487b7160e01b600052603260045260246000fd5b60006020828403121561116e57600080fd5b81356104f381610d06565b6000808335601e1984360301811261119057600080fd5b83018035915067ffffffffffffffff8211156111ab57600080fd5b602001915036819003821315610ad257600080fd5b60006000198214156111e257634e487b7160e01b600052601160045260246000fd5b5060010190565b6000602082840312156111fb57600080fd5b5051919050565b6000825160005b818110156112235760208186018101518583015201611209565b81811115611232576000828501525b509190910192915050565b634e487b7160e01b600052602160045260246000fdfea264697066735822122072edd98e330fe1ac7f1faf0d9db8fab870a480260819d4639e394fff729c5cf564736f6c634300080c0033",
  "linkReferences": {},
  "deployedLinkReferences": {}
}