{
  "_format": "hh-sol-artifact-1",
  "contractName": "SimpleAccount",
  "sourceName": "contracts/Account.sol",
  "abi": [
    {
      "inputs": [
        {
          "internalType": "contract IEntryPoint",
          "name": "anEntryPoint",
          "type": "address"
        },
        {
          "internalType": "address",
          "name": "anOwner",
          "type": "address"
        }
      ],
      "stateMutability": "nonpayable",
      "type": "constructor"
    },
    {
      "anonymous": false,
      "inputs": [
        {
          "indexed": true,
          "internalType": "contract IEntryPoint",
          "name": "entryPoint",
          "type": "address"
        },
        {
          "indexed": true,
          "internalType": "address",
          "name": "owner",
          "type": "address"
        }
      ],
      "name": "SimpleAccountInitialized",
      "type": "event"
    },
    {
      "inputs": [],
      "name": "addDeposit",
      "outputs": [],
      "stateMutability": "payable",
      "type": "function"
    },
    {
      "inputs": [],
      "name": "entryPoint",
      "outputs": [
        {
          "internalType": "contract IEntryPoint",
          "name": "",
          "type": "address"
        }
      ],
      "stateMutability": "view",
      "type": "function"
    },
    {
      "inputs": [
        {
          "internalType": "address",
          "name": "dest",
          "type": "address"
        },
        {
          "internalType": "uint256",
          "name": "value",
          "type": "uint256"
        },
        {
          "internalType": "bytes",
          "name": "data",
          "type": "bytes"
        },
        {
          "internalType": "address",
          "name": "approveToken",
          "type": "address"
        },
        {
          "internalType": "bytes",
          "name": "approveData",
          "type": "bytes"
        }
      ],
      "name": "execute",
      "outputs": [],
      "stateMutability": "nonpayable",
      "type": "function"
    },
    {
      "inputs": [
        {
          "internalType": "address[]",
          "name": "dest",
          "type": "address[]"
        },
        {
          "internalType": "bytes[]",
          "name": "func",
          "type": "bytes[]"
        }
      ],
      "name": "executeBatch",
      "outputs": [],
      "stateMutability": "nonpayable",
      "type": "function"
    },
    {
      "inputs": [],
      "name": "getDeposit",
      "outputs": [
        {
          "internalType": "uint256",
          "name": "",
          "type": "uint256"
        }
      ],
      "stateMutability": "view",
      "type": "function"
    },
    {
      "inputs": [],
      "name": "getNonce",
      "outputs": [
        {
          "internalType": "uint256",
          "name": "",
          "type": "uint256"
        }
      ],
      "stateMutability": "view",
      "type": "function"
    },
    {
      "inputs": [
        {
          "internalType": "address",
          "name": "",
          "type": "address"
        },
        {
          "internalType": "address",
          "name": "",
          "type": "address"
        },
        {
          "internalType": "uint256[]",
          "name": "",
          "type": "uint256[]"
        },
        {
          "internalType": "uint256[]",
          "name": "",
          "type": "uint256[]"
        },
        {
          "internalType": "bytes",
          "name": "",
          "type": "bytes"
        }
      ],
      "name": "onERC1155BatchReceived",
      "outputs": [
        {
          "internalType": "bytes4",
          "name": "",
          "type": "bytes4"
        }
      ],
      "stateMutability": "pure",
      "type": "function"
    },
    {
      "inputs": [
        {
          "internalType": "address",
          "name": "",
          "type": "address"
        },
        {
          "internalType": "address",
          "name": "",
          "type": "address"
        },
        {
          "internalType": "uint256",
          "name": "",
          "type": "uint256"
        },
        {
          "internalType": "uint256",
          "name": "",
          "type": "uint256"
        },
        {
          "internalType": "bytes",
          "name": "",
          "type": "bytes"
        }
      ],
      "name": "onERC1155Received",
      "outputs": [
        {
          "internalType": "bytes4",
          "name": "",
          "type": "bytes4"
        }
      ],
      "stateMutability": "pure",
      "type": "function"
    },
    {
      "inputs": [
        {
          "internalType": "address",
          "name": "",
          "type": "address"
        },
        {
          "internalType": "address",
          "name": "",
          "type": "address"
        },
        {
          "internalType": "uint256",
          "name": "",
          "type": "uint256"
        },
        {
          "internalType": "bytes",
          "name": "",
          "type": "bytes"
        }
      ],
      "name": "onERC721Received",
      "outputs": [
        {
          "internalType": "bytes4",
          "name": "",
          "type": "bytes4"
        }
      ],
      "stateMutability": "pure",
      "type": "function"
    },
    {
      "inputs": [],
      "name": "owner",
      "outputs": [
        {
          "internalType": "address",
          "name": "",
          "type": "address"
        }
      ],
      "stateMutability": "view",
      "type": "function"
    },
    {
      "inputs": [
        {
          "internalType": "bytes4",
          "name": "interfaceId",
          "type": "bytes4"
        }
      ],
      "name": "supportsInterface",
      "outputs": [
        {
          "internalType": "bool",
          "name": "",
          "type": "bool"
        }
      ],
      "stateMutability": "view",
      "type": "function"
    },
    {
      "inputs": [
        {
          "internalType": "address",
          "name": "",
          "type": "address"
        },
        {
          "internalType": "address",
          "name": "",
          "type": "address"
        },
        {
          "internalType": "address",
          "name": "",
          "type": "address"
        },
        {
          "internalType": "uint256",
          "name": "",
          "type": "uint256"
        },
        {
          "internalType": "bytes",
          "name": "",
          "type": "bytes"
        },
        {
          "internalType": "bytes",
          "name": "",
          "type": "bytes"
        }
      ],
      "name": "tokensReceived",
      "outputs": [],
      "stateMutability": "pure",
      "type": "function"
    },
    {
      "inputs": [
        {
          "components": [
            {
              "internalType": "address",
              "name": "sender",
              "type": "address"
            },
            {
              "internalType": "uint256",
              "name": "nonce",
              "type": "uint256"
            },
            {
              "internalType": "bytes",
              "name": "initCode",
              "type": "bytes"
            },
            {
              "internalType": "bytes",
              "name": "callData",
              "type": "bytes"
            },
            {
              "internalType": "uint256",
              "name": "callGasLimit",
              "type": "uint256"
            },
            {
              "internalType": "uint256",
              "name": "verificationGasLimit",
              "type": "uint256"
            },
            {
              "internalType": "uint256",
              "name": "preVerificationGas",
              "type": "uint256"
            },
            {
              "internalType": "uint256",
              "name": "maxFeePerGas",
              "type": "uint256"
            },
            {
              "internalType": "uint256",
              "name": "maxPriorityFeePerGas",
              "type": "uint256"
            },
            {
              "internalType": "bytes",
              "name": "paymasterAndData",
              "type": "bytes"
            },
            {
              "internalType": "bytes",
              "name": "signature",
              "type": "bytes"
            }
          ],
          "internalType": "struct UserOperation",
          "name": "userOp",
          "type": "tuple"
        },
        {
          "internalType": "bytes32",
          "name": "userOpHash",
          "type": "bytes32"
        },
        {
          "internalType": "uint256",
          "name": "missingAccountFunds",
          "type": "uint256"
        }
      ],
      "name": "validateUserOp",
      "outputs": [
        {
          "internalType": "uint256",
          "name": "validationData",
          "type": "uint256"
        }
      ],
      "stateMutability": "nonpayable",
      "type": "function"
    },
    {
      "inputs": [
        {
          "internalType": "address payable",
          "name": "withdrawAddress",
          "type": "address"
        },
        {
          "internalType": "uint256",
          "name": "amount",
          "type": "uint256"
        }
      ],
      "name": "withdrawDepositTo",
      "outputs": [],
      "stateMutability": "nonpayable",
      "type": "function"
    },
    {
      "stateMutability": "payable",
      "type": "receive"
    }
  ],
  "bytecode": "0x60a060405234801561001057600080fd5b506040516200146438038062001464833981016040819052610031916100b6565b6001600160a01b0382166080526100478161004e565b50506100f0565b600080546001600160a01b0319166001600160a01b03838116918217835560805160405192939116917f47e55c76e7a6f1fd8996a1da8008c1ea29699cca35e7bcd057f2dec313b6e5de9190a350565b6001600160a01b03811681146100b357600080fd5b50565b600080604083850312156100c957600080fd5b82516100d48161009e565b60208401519092506100e58161009e565b809150509250929050565b60805161132e620001366000396000818161026a0152818161059f0152818161063901528181610712015281816107c3015281816107fd01526108fc015261132e6000f3fe6080604052600436106100e05760003560e01c80634d44560d1161007f578063bc197c8111610059578063bc197c811461028e578063c399ec88146102d6578063d087d288146102eb578063f23a6e611461030057600080fd5b80634d44560d146102035780638da5cb5b14610223578063b0d691fe1461025b57600080fd5b8063150b7a02116100bb578063150b7a021461016857806318dfb3c7146101ad5780633a871cdd146101cd5780634a58db19146101fb57600080fd5b806223de29146100ec57806301ffc9a71461011357806304e745be1461014857600080fd5b366100e757005b600080fd5b3480156100f857600080fd5b50610111610107366004610db1565b5050505050505050565b005b34801561011f57600080fd5b5061013361012e366004610e62565b610346565b60405190151581526020015b60405180910390f35b34801561015457600080fd5b50610111610163366004610e8c565b6103ca565b34801561017457600080fd5b50610194610183366004610f2d565b630a85bd0160e11b95945050505050565b6040516001600160e01b0319909116815260200161013f565b3480156101b957600080fd5b506101116101c8366004610fe5565b61046d565b3480156101d957600080fd5b506101ed6101e8366004611051565b610577565b60405190815260200161013f565b61011161059d565b34801561020f57600080fd5b5061011161021e3660046110a5565b61062f565b34801561022f57600080fd5b50600054610243906001600160a01b031681565b6040516001600160a01b03909116815260200161013f565b34801561026757600080fd5b507f0000000000000000000000000000000000000000000000000000000000000000610243565b34801561029a57600080fd5b506101946102a93660046110d1565b7fbc197c810000000000000000000000000000000000000000000000000000000098975050505050505050565b3480156102e257600080fd5b506101ed6106d9565b3480156102f757600080fd5b506101ed610783565b34801561030c57600080fd5b5061019461031b36600461116f565b7ff23a6e61000000000000000000000000000000000000000000000000000000009695505050505050565b60006001600160e01b03198216630a85bd0160e11b148061039057506001600160e01b031982167f4e2312e000000000000000000000000000000000000000000000000000000000145b806103c457506001600160e01b031982167f01ffc9a700000000000000000000000000000000000000000000000000000000145b92915050565b6103d26107f2565b610413878787878080601f01602080910402602001604051908101604052809392919081815260200183838082843760009201919091525061088192505050565b6001600160a01b038316156104645761046483600084848080601f01602080910402602001604051908101604052809392919081815260200183838082843760009201919091525061088192505050565b50505050505050565b6104756107f2565b8281146104c95760405162461bcd60e51b815260206004820152601360248201527f77726f6e67206172726179206c656e677468730000000000000000000000000060448201526064015b60405180910390fd5b60005b838110156105705761055e8585838181106104e9576104e96111eb565b90506020020160208101906104fe9190611201565b6000858585818110610512576105126111eb565b9050602002810190610524919061121e565b8080601f01602080910402602001604051908101604052809392919081815260200183838082843760009201919091525061088192505050565b8061056881611265565b9150506104cc565b5050505050565b60006105816108f1565b61058b8484610969565b905061059682610a12565b9392505050565b7f00000000000000000000000000000000000000000000000000000000000000006040517fb760faf90000000000000000000000000000000000000000000000000000000081523060048201526001600160a01b03919091169063b760faf99034906024016000604051808303818588803b15801561061b57600080fd5b505af1158015610570573d6000803e3d6000fd5b610637610a5f565b7f00000000000000000000000000000000000000000000000000000000000000006040517f205c28780000000000000000000000000000000000000000000000000000000081526001600160a01b03848116600483015260248201849052919091169063205c287890604401600060405180830381600087803b1580156106bd57600080fd5b505af11580156106d1573d6000803e3d6000fd5b505050505050565b6040517f70a082310000000000000000000000000000000000000000000000000000000081523060048201526000906001600160a01b037f000000000000000000000000000000000000000000000000000000000000000016906370a08231906024015b602060405180830381865afa15801561075a573d6000803e3d6000fd5b505050506040513d601f19601f8201168201806040525081019061077e919061128e565b905090565b6040517f35567e1a000000000000000000000000000000000000000000000000000000008152306004820152600060248201819052906001600160a01b037f000000000000000000000000000000000000000000000000000000000000000016906335567e1a9060440161073d565b336001600160a01b037f000000000000000000000000000000000000000000000000000000000000000016148061083357506000546001600160a01b031633145b61087f5760405162461bcd60e51b815260206004820181905260248201527f6163636f756e743a206e6f74204f776e6572206f7220456e747279506f696e7460448201526064016104c0565b565b600080846001600160a01b0316848460405161089d91906112a7565b60006040518083038185875af1925050503d80600081146108da576040519150601f19603f3d011682016040523d82523d6000602084013e6108df565b606091505b50915091508161057057805160208201fd5b336001600160a01b037f0000000000000000000000000000000000000000000000000000000000000000161461087f5760405162461bcd60e51b815260206004820152601c60248201527f6163636f756e743a206e6f742066726f6d20456e747279506f696e740000000060448201526064016104c0565b7f19457468657265756d205369676e6564204d6573736167653a0a3332000000006000908152601c829052603c81206109e66109a961014086018661121e565b8080601f0160208091040260200160405190810160405280939291908181526020018383808284376000920191909152508593925050610ac39050565b6000546001600160a01b03908116911614610a055760019150506103c4565b5060009392505050565b50565b8015610a0f57604051600090339060001990849084818181858888f193505050503d8060008114610570576040519150601f19603f3d011682016040523d82523d6000602084013e610570565b6000546001600160a01b0316331480610a7757503330145b61087f5760405162461bcd60e51b815260206004820152600a60248201527f6f6e6c79206f776e65720000000000000000000000000000000000000000000060448201526064016104c0565b6000806000610ad28585610ae7565b91509150610adf81610b2d565b509392505050565b600080825160411415610b1e5760208301516040840151606085015160001a610b1287828585610c96565b94509450505050610b26565b506000905060025b9250929050565b6000816004811115610b4157610b416112e2565b1415610b4a5750565b6001816004811115610b5e57610b5e6112e2565b1415610bac5760405162461bcd60e51b815260206004820152601860248201527f45434453413a20696e76616c6964207369676e6174757265000000000000000060448201526064016104c0565b6002816004811115610bc057610bc06112e2565b1415610c0e5760405162461bcd60e51b815260206004820152601f60248201527f45434453413a20696e76616c6964207369676e6174757265206c656e6774680060448201526064016104c0565b6003816004811115610c2257610c226112e2565b1415610a0f5760405162461bcd60e51b815260206004820152602260248201527f45434453413a20696e76616c6964207369676e6174757265202773272076616c60448201527f756500000000000000000000000000000000000000000000000000000000000060648201526084016104c0565b6000807f7fffffffffffffffffffffffffffffff5d576e7357a4501ddfe92f46681b20a0831115610ccd5750600090506003610d51565b6040805160008082526020820180845289905260ff881692820192909252606081018690526080810185905260019060a0016020604051602081039080840390855afa158015610d21573d6000803e3d6000fd5b5050604051601f1901519150506001600160a01b038116610d4a57600060019250925050610d51565b9150600090505b94509492505050565b6001600160a01b0381168114610a0f57600080fd5b60008083601f840112610d8157600080fd5b50813567ffffffffffffffff811115610d9957600080fd5b602083019150836020828501011115610b2657600080fd5b60008060008060008060008060c0898b031215610dcd57600080fd5b8835610dd881610d5a565b97506020890135610de881610d5a565b96506040890135610df881610d5a565b955060608901359450608089013567ffffffffffffffff80821115610e1c57600080fd5b610e288c838d01610d6f565b909650945060a08b0135915080821115610e4157600080fd5b50610e4e8b828c01610d6f565b999c989b5096995094979396929594505050565b600060208284031215610e7457600080fd5b81356001600160e01b03198116811461059657600080fd5b600080600080600080600060a0888a031215610ea757600080fd5b8735610eb281610d5a565b965060208801359550604088013567ffffffffffffffff80821115610ed657600080fd5b610ee28b838c01610d6f565b909750955060608a01359150610ef782610d5a565b90935060808901359080821115610f0d57600080fd5b50610f1a8a828b01610d6f565b989b979a50959850939692959293505050565b600080600080600060808688031215610f4557600080fd5b8535610f5081610d5a565b94506020860135610f6081610d5a565b935060408601359250606086013567ffffffffffffffff811115610f8357600080fd5b610f8f88828901610d6f565b969995985093965092949392505050565b60008083601f840112610fb257600080fd5b50813567ffffffffffffffff811115610fca57600080fd5b6020830191508360208260051b8501011115610b2657600080fd5b60008060008060408587031215610ffb57600080fd5b843567ffffffffffffffff8082111561101357600080fd5b61101f88838901610fa0565b9096509450602087013591508082111561103857600080fd5b5061104587828801610fa0565b95989497509550505050565b60008060006060848603121561106657600080fd5b833567ffffffffffffffff81111561107d57600080fd5b8401610160818703121561109057600080fd5b95602085013595506040909401359392505050565b600080604083850312156110b857600080fd5b82356110c381610d5a565b946020939093013593505050565b60008060008060008060008060a0898b0312156110ed57600080fd5b88356110f881610d5a565b9750602089013561110881610d5a565b9650604089013567ffffffffffffffff8082111561112557600080fd5b6111318c838d01610fa0565b909850965060608b013591508082111561114a57600080fd5b6111568c838d01610fa0565b909650945060808b0135915080821115610e4157600080fd5b60008060008060008060a0878903121561118857600080fd5b863561119381610d5a565b955060208701356111a381610d5a565b94506040870135935060608701359250608087013567ffffffffffffffff8111156111cd57600080fd5b6111d989828a01610d6f565b979a9699509497509295939492505050565b634e487b7160e01b600052603260045260246000fd5b60006020828403121561121357600080fd5b813561059681610d5a565b6000808335601e1984360301811261123557600080fd5b83018035915067ffffffffffffffff82111561125057600080fd5b602001915036819003821315610b2657600080fd5b600060001982141561128757634e487b7160e01b600052601160045260246000fd5b5060010190565b6000602082840312156112a057600080fd5b5051919050565b6000825160005b818110156112c857602081860181015185830152016112ae565b818111156112d7576000828501525b509190910192915050565b634e487b7160e01b600052602160045260246000fdfea2646970667358221220158d3856a6abf77f586d030308db6e342cd831558e8afb440604d72e6a01d38764736f6c634300080c0033",
  "linkReferences": {},
  "deployedLinkReferences": {}
}